{
  "contractName": "EHR",
  "abi": [
    {
      "constant": true,
      "inputs": [
        {
          "internalType": "address",
          "name": "",
          "type": "address"
        }
      ],
      "name": "doctors",
      "outputs": [
        {
          "internalType": "address",
          "name": "id",
          "type": "address"
        },
        {
          "internalType": "string",
          "name": "name",
          "type": "string"
        },
        {
          "internalType": "uint256",
          "name": "birthyear",
          "type": "uint256"
        },
        {
          "internalType": "uint256",
          "name": "month",
          "type": "uint256"
        },
        {
          "internalType": "uint256",
          "name": "day",
          "type": "uint256"
        },
        {
          "internalType": "string",
          "name": "city",
          "type": "string"
        },
        {
          "internalType": "string",
          "name": "speciality",
          "type": "string"
        }
      ],
      "payable": false,
      "stateMutability": "view",
      "type": "function"
    },
    {
      "constant": true,
      "inputs": [
        {
          "internalType": "address",
          "name": "",
          "type": "address"
        }
      ],
      "name": "patients",
      "outputs": [
        {
          "internalType": "address",
          "name": "id",
          "type": "address"
        },
        {
          "internalType": "string",
          "name": "name",
          "type": "string"
        },
        {
          "internalType": "uint256",
          "name": "birthyear",
          "type": "uint256"
        },
        {
          "internalType": "uint256",
          "name": "month",
          "type": "uint256"
        },
        {
          "internalType": "uint256",
          "name": "day",
          "type": "uint256"
        },
        {
          "internalType": "string",
          "name": "city",
          "type": "string"
        }
      ],
      "payable": false,
      "stateMutability": "view",
      "type": "function"
    },
    {
      "constant": false,
      "inputs": [
        {
          "internalType": "string",
          "name": "_name",
          "type": "string"
        },
        {
          "internalType": "uint256",
          "name": "_birthyear",
          "type": "uint256"
        },
        {
          "internalType": "uint256",
          "name": "_month",
          "type": "uint256"
        },
        {
          "internalType": "uint256",
          "name": "_day",
          "type": "uint256"
        },
        {
          "internalType": "string",
          "name": "_city",
          "type": "string"
        }
      ],
      "name": "registerPatient",
      "outputs": [],
      "payable": false,
      "stateMutability": "nonpayable",
      "type": "function"
    },
    {
      "constant": false,
      "inputs": [
        {
          "internalType": "address",
          "name": "_doctor",
          "type": "address"
        }
      ],
      "name": "giveAccess",
      "outputs": [],
      "payable": false,
      "stateMutability": "nonpayable",
      "type": "function"
    },
    {
      "constant": false,
      "inputs": [
        {
          "internalType": "address",
          "name": "_doctor",
          "type": "address"
        }
      ],
      "name": "revokeAccess",
      "outputs": [],
      "payable": false,
      "stateMutability": "nonpayable",
      "type": "function"
    },
    {
      "constant": true,
      "inputs": [
        {
          "internalType": "address",
          "name": "_patient",
          "type": "address"
        }
      ],
      "name": "drViewRecord",
      "outputs": [
        {
          "internalType": "string[]",
          "name": "",
          "type": "string[]"
        }
      ],
      "payable": false,
      "stateMutability": "view",
      "type": "function"
    },
    {
      "constant": true,
      "inputs": [
        {
          "internalType": "address",
          "name": "_patient",
          "type": "address"
        }
      ],
      "name": "patViewRecord",
      "outputs": [
        {
          "internalType": "string[]",
          "name": "",
          "type": "string[]"
        }
      ],
      "payable": false,
      "stateMutability": "view",
      "type": "function"
    },
    {
      "constant": false,
      "inputs": [
        {
          "internalType": "string",
          "name": "_name",
          "type": "string"
        },
        {
          "internalType": "uint256",
          "name": "_birthyear",
          "type": "uint256"
        },
        {
          "internalType": "uint256",
          "name": "_month",
          "type": "uint256"
        },
        {
          "internalType": "uint256",
          "name": "_day",
          "type": "uint256"
        },
        {
          "internalType": "string",
          "name": "_city",
          "type": "string"
        },
        {
          "internalType": "string",
          "name": "_speciality",
          "type": "string"
        }
      ],
      "name": "registerDoctor",
      "outputs": [],
      "payable": false,
      "stateMutability": "nonpayable",
      "type": "function"
    },
    {
      "constant": false,
      "inputs": [
        {
          "internalType": "address",
          "name": "_patient",
          "type": "address"
        },
        {
          "internalType": "string",
          "name": "newEntry",
          "type": "string"
        }
      ],
      "name": "updateHR",
      "outputs": [],
      "payable": false,
      "stateMutability": "nonpayable",
      "type": "function"
    }
  ],
  "bytecode": "0x608060405234801561001057600080fd5b50611c34806100206000396000f3fe608060405234801561001057600080fd5b50600436106100935760003560e01c8063a9583c2211610066578063a9583c2214610121578063ab3c019b14610157578063cf12e87014610187578063d86373d8146101a3578063db31c099146101d357610093565b80630869cfbc146100985780631f9de7e4146100cd57806385e68531146100e95780638ec89ee614610105575b600080fd5b6100b260048036036100ad9190810190611652565b6101ef565b6040516100c496959493929190611960565b60405180910390f35b6100e760048036036100e29190810190611776565b61037b565b005b61010360048036036100fe9190810190611652565b610616565b005b61011f600480360361011a919081019061167b565b610803565b005b61013b60048036036101369190810190611652565b610984565b60405161014e97969594939291906119cf565b60405180910390f35b610171600480360361016c9190810190611652565b610bae565b60405161017e9190611a53565b60405180910390f35b6101a1600480360361019c9190810190611652565b610d11565b005b6101bd60048036036101b89190810190611652565b610edc565b6040516101ca9190611a53565b60405180910390f35b6101ed60048036036101e891908101906116cf565b6110a4565b005b60016020528060005260406000206000915090508060000160009054906101000a900473ffffffffffffffffffffffffffffffffffffffff1690806001018054600181600116156101000203166002900480601f0160208091040260200160405190810160405280929190818152602001828054600181600116156101000203166002900480156102c15780601f10610296576101008083540402835291602001916102c1565b820191906000526020600020905b8154815290600101906020018083116102a457829003601f168201915b505050505090806002015490806003015490806004015490806005018054600181600116156101000203166002900480601f0160208091040260200160405190810160405280929190818152602001828054600181600116156101000203166002900480156103715780601f1061034657610100808354040283529160200191610371565b820191906000526020600020905b81548152906001019060200180831161035457829003601f168201915b5050505050905086565b336000806101000a81548173ffffffffffffffffffffffffffffffffffffffff021916908373ffffffffffffffffffffffffffffffffffffffff1602179055506103c3611335565b868160200181905250858160400181815250508481606001818152505083816080018181525050828160a00181905250818160c00181905250600360008060009054906101000a900473ffffffffffffffffffffffffffffffffffffffff1673ffffffffffffffffffffffffffffffffffffffff1673ffffffffffffffffffffffffffffffffffffffff16815260200190815260200160002060009054906101000a900460ff161561047457600080fd5b80600260008060009054906101000a900473ffffffffffffffffffffffffffffffffffffffff1673ffffffffffffffffffffffffffffffffffffffff1673ffffffffffffffffffffffffffffffffffffffff16815260200190815260200160002060008201518160000160006101000a81548173ffffffffffffffffffffffffffffffffffffffff021916908373ffffffffffffffffffffffffffffffffffffffff1602179055506020820151816001019080519060200190610538929190611388565b5060408201518160020155606082015181600301556080820151816004015560a0820151816005019080519060200190610573929190611388565b5060c0820151816006019080519060200190610590929190611388565b509050506001600360008060009054906101000a900473ffffffffffffffffffffffffffffffffffffffff1673ffffffffffffffffffffffffffffffffffffffff1673ffffffffffffffffffffffffffffffffffffffff16815260200190815260200160002060006101000a81548160ff02191690831515021790555050505050505050565b336000806101000a81548173ffffffffffffffffffffffffffffffffffffffff021916908373ffffffffffffffffffffffffffffffffffffffff1602179055506000809054906101000a900473ffffffffffffffffffffffffffffffffffffffff1673ffffffffffffffffffffffffffffffffffffffff163373ffffffffffffffffffffffffffffffffffffffff16146106af57600080fd5b6000600160008060009054906101000a900473ffffffffffffffffffffffffffffffffffffffff1673ffffffffffffffffffffffffffffffffffffffff1673ffffffffffffffffffffffffffffffffffffffff16815260200190815260200160002060070160008373ffffffffffffffffffffffffffffffffffffffff1673ffffffffffffffffffffffffffffffffffffffff16815260200190815260200160002060006101000a81548160ff0219169083151502179055506000600260008373ffffffffffffffffffffffffffffffffffffffff1673ffffffffffffffffffffffffffffffffffffffff16815260200190815260200160002060070160003373ffffffffffffffffffffffffffffffffffffffff1673ffffffffffffffffffffffffffffffffffffffff16815260200190815260200160002060006101000a81548160ff02191690831515021790555050565b336000806101000a81548173ffffffffffffffffffffffffffffffffffffffff021916908373ffffffffffffffffffffffffffffffffffffffff16021790555060011515600260008060009054906101000a900473ffffffffffffffffffffffffffffffffffffffff1673ffffffffffffffffffffffffffffffffffffffff1673ffffffffffffffffffffffffffffffffffffffff16815260200190815260200160002060070160008473ffffffffffffffffffffffffffffffffffffffff1673ffffffffffffffffffffffffffffffffffffffff16815260200190815260200160002060009054906101000a900460ff1615151461090157600080fd5b600160008373ffffffffffffffffffffffffffffffffffffffff1673ffffffffffffffffffffffffffffffffffffffff16815260200190815260200160002060060181908060018154018082558091505090600182039060005260206000200160009091929091909150908051906020019061097e929190611408565b50505050565b60026020528060005260406000206000915090508060000160009054906101000a900473ffffffffffffffffffffffffffffffffffffffff1690806001018054600181600116156101000203166002900480601f016020809104026020016040519081016040528092919081815260200182805460018160011615610100020316600290048015610a565780601f10610a2b57610100808354040283529160200191610a56565b820191906000526020600020905b815481529060010190602001808311610a3957829003601f168201915b505050505090806002015490806003015490806004015490806005018054600181600116156101000203166002900480601f016020809104026020016040519081016040528092919081815260200182805460018160011615610100020316600290048015610b065780601f10610adb57610100808354040283529160200191610b06565b820191906000526020600020905b815481529060010190602001808311610ae957829003601f168201915b505050505090806006018054600181600116156101000203166002900480601f016020809104026020016040519081016040528092919081815260200182805460018160011615610100020316600290048015610ba45780601f10610b7957610100808354040283529160200191610ba4565b820191906000526020600020905b815481529060010190602001808311610b8757829003601f168201915b5050505050905087565b60603373ffffffffffffffffffffffffffffffffffffffff168273ffffffffffffffffffffffffffffffffffffffff1614610be857600080fd5b600160008373ffffffffffffffffffffffffffffffffffffffff1673ffffffffffffffffffffffffffffffffffffffff168152602001908152602001600020600601805480602002602001604051908101604052809291908181526020016000905b82821015610d06578382906000526020600020018054600181600116156101000203166002900480601f016020809104026020016040519081016040528092919081815260200182805460018160011615610100020316600290048015610cf25780601f10610cc757610100808354040283529160200191610cf2565b820191906000526020600020905b815481529060010190602001808311610cd557829003601f168201915b505050505081526020019060010190610c4a565b505050509050919050565b336000806101000a81548173ffffffffffffffffffffffffffffffffffffffff021916908373ffffffffffffffffffffffffffffffffffffffff1602179055506000809054906101000a900473ffffffffffffffffffffffffffffffffffffffff1673ffffffffffffffffffffffffffffffffffffffff163373ffffffffffffffffffffffffffffffffffffffff1614610daa57600080fd5b60018060003373ffffffffffffffffffffffffffffffffffffffff1673ffffffffffffffffffffffffffffffffffffffff16815260200190815260200160002060070160008373ffffffffffffffffffffffffffffffffffffffff1673ffffffffffffffffffffffffffffffffffffffff16815260200190815260200160002060006101000a81548160ff0219169083151502179055506001600260008373ffffffffffffffffffffffffffffffffffffffff1673ffffffffffffffffffffffffffffffffffffffff16815260200190815260200160002060070160003373ffffffffffffffffffffffffffffffffffffffff1673ffffffffffffffffffffffffffffffffffffffff16815260200190815260200160002060006101000a81548160ff02191690831515021790555050565b606060011515600160008473ffffffffffffffffffffffffffffffffffffffff1673ffffffffffffffffffffffffffffffffffffffff16815260200190815260200160002060070160003373ffffffffffffffffffffffffffffffffffffffff1673ffffffffffffffffffffffffffffffffffffffff16815260200190815260200160002060009054906101000a900460ff16151514610f7b57600080fd5b600160008373ffffffffffffffffffffffffffffffffffffffff1673ffffffffffffffffffffffffffffffffffffffff168152602001908152602001600020600601805480602002602001604051908101604052809291908181526020016000905b82821015611099578382906000526020600020018054600181600116156101000203166002900480601f0160208091040260200160405190810160405280929190818152602001828054600181600116156101000203166002900480156110855780601f1061105a57610100808354040283529160200191611085565b820191906000526020600020905b81548152906001019060200180831161106857829003601f168201915b505050505081526020019060010190610fdd565b505050509050919050565b6110ac611488565b858160200181905250848160400181815250508381606001818152505082816080018181525050818160a00181905250336000806101000a81548173ffffffffffffffffffffffffffffffffffffffff021916908373ffffffffffffffffffffffffffffffffffffffff160217905550600360008060009054906101000a900473ffffffffffffffffffffffffffffffffffffffff1673ffffffffffffffffffffffffffffffffffffffff1673ffffffffffffffffffffffffffffffffffffffff16815260200190815260200160002060009054906101000a900460ff161561119457600080fd5b80600160008060009054906101000a900473ffffffffffffffffffffffffffffffffffffffff1673ffffffffffffffffffffffffffffffffffffffff1673ffffffffffffffffffffffffffffffffffffffff16815260200190815260200160002060008201518160000160006101000a81548173ffffffffffffffffffffffffffffffffffffffff021916908373ffffffffffffffffffffffffffffffffffffffff1602179055506020820151816001019080519060200190611258929190611388565b5060408201518160020155606082015181600301556080820151816004015560a0820151816005019080519060200190611293929190611388565b5060c08201518160060190805190602001906112b09291906114db565b509050506001600360008060009054906101000a900473ffffffffffffffffffffffffffffffffffffffff1673ffffffffffffffffffffffffffffffffffffffff1673ffffffffffffffffffffffffffffffffffffffff16815260200190815260200160002060006101000a81548160ff021916908315150217905550505050505050565b6040518060e00160405280600073ffffffffffffffffffffffffffffffffffffffff1681526020016060815260200160008152602001600081526020016000815260200160608152602001606081525090565b828054600181600116156101000203166002900490600052602060002090601f016020900481019282601f106113c957805160ff19168380011785556113f7565b828001600101855582156113f7579182015b828111156113f65782518255916020019190600101906113db565b5b509050611404919061153b565b5090565b828054600181600116156101000203166002900490600052602060002090601f016020900481019282601f1061144957805160ff1916838001178555611477565b82800160010185558215611477579182015b8281111561147657825182559160200191906001019061145b565b5b509050611484919061153b565b5090565b6040518060e00160405280600073ffffffffffffffffffffffffffffffffffffffff1681526020016060815260200160008152602001600081526020016000815260200160608152602001606081525090565b82805482825590600052602060002090810192821561152a579160200282015b82811115611529578251829080519060200190611519929190611388565b50916020019190600101906114fb565b5b5090506115379190611560565b5090565b61155d91905b80821115611559576000816000905550600101611541565b5090565b90565b61158991905b80821115611585576000818161157c919061158c565b50600101611566565b5090565b90565b50805460018160011615610100020316600290046000825580601f106115b257506115d1565b601f0160209004906000526020600020908101906115d0919061153b565b5b50565b6000813590506115e381611bc3565b92915050565b600082601f8301126115fa57600080fd5b813561160d61160882611aa2565b611a75565b9150808252602083016020830185838301111561162957600080fd5b611634838284611b70565b50505092915050565b60008135905061164c81611bda565b92915050565b60006020828403121561166457600080fd5b6000611672848285016115d4565b91505092915050565b6000806040838503121561168e57600080fd5b600061169c858286016115d4565b925050602083013567ffffffffffffffff8111156116b957600080fd5b6116c5858286016115e9565b9150509250929050565b600080600080600060a086880312156116e757600080fd5b600086013567ffffffffffffffff81111561170157600080fd5b61170d888289016115e9565b955050602061171e8882890161163d565b945050604061172f8882890161163d565b93505060606117408882890161163d565b925050608086013567ffffffffffffffff81111561175d57600080fd5b611769888289016115e9565b9150509295509295909350565b60008060008060008060c0878903121561178f57600080fd5b600087013567ffffffffffffffff8111156117a957600080fd5b6117b589828a016115e9565b96505060206117c689828a0161163d565b95505060406117d789828a0161163d565b94505060606117e889828a0161163d565b935050608087013567ffffffffffffffff81111561180557600080fd5b61181189828a016115e9565b92505060a087013567ffffffffffffffff81111561182e57600080fd5b61183a89828a016115e9565b9150509295509295509295565b600061185383836118df565b905092915050565b61186481611b34565b82525050565b600061187582611ade565b61187f8185611b01565b93508360208202850161189185611ace565b8060005b858110156118cd57848403895281516118ae8582611847565b94506118b983611af4565b925060208a01995050600181019050611895565b50829750879550505050505092915050565b60006118ea82611ae9565b6118f48185611b12565b9350611904818560208601611b7f565b61190d81611bb2565b840191505092915050565b600061192382611ae9565b61192d8185611b23565b935061193d818560208601611b7f565b61194681611bb2565b840191505092915050565b61195a81611b66565b82525050565b600060c082019050611975600083018961185b565b81810360208301526119878188611918565b90506119966040830187611951565b6119a36060830186611951565b6119b06080830185611951565b81810360a08301526119c28184611918565b9050979650505050505050565b600060e0820190506119e4600083018a61185b565b81810360208301526119f68189611918565b9050611a056040830188611951565b611a126060830187611951565b611a1f6080830186611951565b81810360a0830152611a318185611918565b905081810360c0830152611a458184611918565b905098975050505050505050565b60006020820190508181036000830152611a6d818461186a565b905092915050565b6000604051905081810181811067ffffffffffffffff82111715611a9857600080fd5b8060405250919050565b600067ffffffffffffffff821115611ab957600080fd5b601f19601f8301169050602081019050919050565b6000819050602082019050919050565b600081519050919050565b600081519050919050565b6000602082019050919050565b600082825260208201905092915050565b600082825260208201905092915050565b600082825260208201905092915050565b6000611b3f82611b46565b9050919050565b600073ffffffffffffffffffffffffffffffffffffffff82169050919050565b6000819050919050565b82818337600083830152505050565b60005b83811015611b9d578082015181840152602081019050611b82565b83811115611bac576000848401525b50505050565b6000601f19601f8301169050919050565b611bcc81611b34565b8114611bd757600080fd5b50565b611be381611b66565b8114611bee57600080fd5b5056fea365627a7a72315820d421862fbd815df77976a541f3caf550f54bdcae4a9b44d318f2c8427a7a1bd96c6578706572696d656e74616cf564736f6c63430005100040",
  "source": "pragma solidity ^0.5.16;\npragma experimental ABIEncoderV2;\n\ncontract EHR {\n\n\taddress owner;\n\t//uint public patientCount;\n\tmapping(address => Patient) public patients;\n\t//uint public doctorCount;\n\tmapping(address=> Doctor) public doctors;\n\tmapping(address => bool) profileExists;\n\n\t// Model a patient\n\tstruct Patient {\n\n\t\t// Identifiers\n\t\taddress id;\n\t\tstring name;\n\t\tuint birthyear;\n\t\tuint month;\n\t\tuint day;\n\t\tstring city;\n\n\t\t// Health record\n\t\tstring[] records;\n\t\t// Doctor list\n\t\tmapping(address => bool) doctors;\n\n\t}\n\t// Register patient\n\tfunction registerPatient(string memory _name, uint _birthyear, uint _month, uint _day, string memory _city) public {\n\t\tPatient memory pat;\n\t\tpat.name = _name;\n\t\tpat.birthyear = _birthyear;\n\t\tpat.month = _month;\n\t\tpat.day = _day;\n\t\tpat.city = _city;\n\t\towner = msg.sender;\n\t\trequire(!profileExists[owner]);\n\t\tpatients[owner] = pat;\n\t\tprofileExists[owner] = true;\n\n\t}\n\t// Give doctor access to records.\n\tfunction giveAccess(address _doctor) public {\n\t\towner = msg.sender;\n\t\trequire(msg.sender == owner);\n\t\tpatients[msg.sender].doctors[_doctor] = true;\n\t\tdoctors[_doctor].patientAccess[msg.sender] = true;\n\t}\n\t// Revoke doctor access to records.\n\tfunction revokeAccess(address _doctor) public {\n\t\towner = msg.sender;\n\t\trequire(msg.sender == owner);\n\t\tpatients[owner].doctors[_doctor] = false;\n\t\tdoctors[_doctor].patientAccess[msg.sender] = false;\n    }\n\n    function drViewRecord(address _patient) public view returns (string[] memory){\n    \trequire(patients[_patient].doctors[msg.sender] == true);\n    \treturn patients[_patient].records;\n    }\n\n    function patViewRecord(address _patient) public view returns (string[] memory){\n    \trequire(_patient == msg.sender);\n    \treturn patients[_patient].records;\n    }\n\n\n\tstruct Doctor {\n\n\t// Identifiers\n\taddress id;\n\tstring name;\n\tuint birthyear;\n\tuint month;\n\tuint day;\n\tstring city;\n\tstring speciality;\n\n\t// Patient List\n\tmapping(address => bool) patientAccess;\n\t\n\n\t}\n\t// Register doctor\n\tfunction registerDoctor(string memory _name, uint _birthyear, uint _month, uint _day, string memory _city, string memory _speciality) public {\n\t\towner = msg.sender;\n\t\tDoctor memory doc;\n\t\tdoc.name = _name;\n\t\tdoc.birthyear = _birthyear;\n\t\tdoc.month = _month;\n\t\tdoc.day = _day;\n\t\tdoc.city = _city;\n\t\tdoc.speciality = _speciality;\n\t\trequire(!profileExists[owner]);\n\t\t//doctorCount++;\n\t\tdoctors[owner] = doc;\n\t\tprofileExists[owner] = true;\n\t}\n\n\tfunction updateHR(address _patient, string memory newEntry) public {\n\t\towner = msg.sender;\n\t\trequire(doctors[owner].patientAccess[_patient] == true);\n\t\tpatients[_patient].records.push(newEntry);\n\t}\n\t\n}\n\n",
  "sourcePath": "/home/oscar/Desktop/EHR-System/contracts/EHR.sol",
  "compiler": {
    "name": "solc",
    "version": "0.5.16+commit.9c3226ce.Emscripten.clang"
  },
  "schemaVersion": "3.3.4",
  "updatedAt": "2021-03-22T19:45:33.966Z",
  "networkType": "ethereum",
  "devdoc": {
    "methods": {}
  },
  "userdoc": {
    "methods": {}
  }
}