{
  "contractName": "EHR",
  "abi": [
    {
      "constant": true,
      "inputs": [
        {
          "internalType": "address",
          "name": "",
          "type": "address"
        }
      ],
      "name": "doctors",
      "outputs": [
        {
          "internalType": "address",
          "name": "id",
          "type": "address"
        },
        {
          "internalType": "string",
          "name": "name",
          "type": "string"
        },
        {
          "internalType": "uint256",
          "name": "birthyear",
          "type": "uint256"
        },
        {
          "internalType": "uint256",
          "name": "month",
          "type": "uint256"
        },
        {
          "internalType": "uint256",
          "name": "day",
          "type": "uint256"
        },
        {
          "internalType": "string",
          "name": "city",
          "type": "string"
        },
        {
          "internalType": "string",
          "name": "speciality",
          "type": "string"
        }
      ],
      "payable": false,
      "stateMutability": "view",
      "type": "function"
    },
    {
      "constant": true,
      "inputs": [
        {
          "internalType": "address",
          "name": "",
          "type": "address"
        }
      ],
      "name": "patients",
      "outputs": [
        {
          "internalType": "address",
          "name": "id",
          "type": "address"
        },
        {
          "internalType": "string",
          "name": "name",
          "type": "string"
        },
        {
          "internalType": "uint256",
          "name": "birthyear",
          "type": "uint256"
        },
        {
          "internalType": "uint256",
          "name": "month",
          "type": "uint256"
        },
        {
          "internalType": "uint256",
          "name": "day",
          "type": "uint256"
        },
        {
          "internalType": "string",
          "name": "city",
          "type": "string"
        }
      ],
      "payable": false,
      "stateMutability": "view",
      "type": "function"
    },
    {
      "constant": false,
      "inputs": [
        {
          "internalType": "string",
          "name": "_name",
          "type": "string"
        },
        {
          "internalType": "uint256",
          "name": "_birthyear",
          "type": "uint256"
        },
        {
          "internalType": "uint256",
          "name": "_month",
          "type": "uint256"
        },
        {
          "internalType": "uint256",
          "name": "_day",
          "type": "uint256"
        },
        {
          "internalType": "string",
          "name": "_city",
          "type": "string"
        }
      ],
      "name": "registerPatient",
      "outputs": [],
      "payable": false,
      "stateMutability": "nonpayable",
      "type": "function"
    },
    {
      "constant": false,
      "inputs": [
        {
          "internalType": "address",
          "name": "_doctor",
          "type": "address"
        }
      ],
      "name": "giveAccess",
      "outputs": [],
      "payable": false,
      "stateMutability": "nonpayable",
      "type": "function"
    },
    {
      "constant": false,
      "inputs": [
        {
          "internalType": "address",
          "name": "_doctor",
          "type": "address"
        }
      ],
      "name": "revokeAccess",
      "outputs": [],
      "payable": false,
      "stateMutability": "nonpayable",
      "type": "function"
    },
    {
      "constant": true,
      "inputs": [
        {
          "internalType": "address",
          "name": "_patient",
          "type": "address"
        }
      ],
      "name": "viewRecord",
      "outputs": [
        {
          "internalType": "string[]",
          "name": "",
          "type": "string[]"
        }
      ],
      "payable": false,
      "stateMutability": "view",
      "type": "function"
    },
    {
      "constant": false,
      "inputs": [
        {
          "internalType": "string",
          "name": "_name",
          "type": "string"
        },
        {
          "internalType": "uint256",
          "name": "_birthyear",
          "type": "uint256"
        },
        {
          "internalType": "uint256",
          "name": "_month",
          "type": "uint256"
        },
        {
          "internalType": "uint256",
          "name": "_day",
          "type": "uint256"
        },
        {
          "internalType": "string",
          "name": "_city",
          "type": "string"
        },
        {
          "internalType": "string",
          "name": "_speciality",
          "type": "string"
        }
      ],
      "name": "registerDoctor",
      "outputs": [],
      "payable": false,
      "stateMutability": "nonpayable",
      "type": "function"
    }
  ],
  "bytecode": "0x608060405234801561001057600080fd5b50611758806100206000396000f3fe608060405234801561001057600080fd5b506004361061007d5760003560e01c8063a9583c221161005b578063a9583c22146100ef578063b75bf86514610125578063cf12e87014610155578063db31c099146101715761007d565b80630869cfbc146100825780631f9de7e4146100b757806385e68531146100d3575b600080fd5b61009c600480360361009791908101906111ca565b61018d565b6040516100ae96959493929190611484565b60405180910390f35b6100d160048036036100cc919081019061129a565b610319565b005b6100ed60048036036100e891908101906111ca565b610634565b005b610109600480360361010491908101906111ca565b6107be565b60405161011c97969594939291906114f3565b60405180910390f35b61013f600480360361013a91908101906111ca565b6109e8565b60405161014c9190611577565b60405180910390f35b61016f600480360361016a91908101906111ca565b610b13565b005b61018b600480360361018691908101906111f3565b610bbc565b005b60016020528060005260406000206000915090508060000160009054906101000a900473ffffffffffffffffffffffffffffffffffffffff1690806001018054600181600116156101000203166002900480601f01602080910402602001604051908101604052809291908181526020018280546001816001161561010002031660029004801561025f5780601f106102345761010080835404028352916020019161025f565b820191906000526020600020905b81548152906001019060200180831161024257829003601f168201915b505050505090806002015490806003015490806004015490806005018054600181600116156101000203166002900480601f01602080910402602001604051908101604052809291908181526020018280546001816001161561010002031660029004801561030f5780601f106102e45761010080835404028352916020019161030f565b820191906000526020600020905b8154815290600101906020018083116102f257829003601f168201915b5050505050905086565b336000806101000a81548173ffffffffffffffffffffffffffffffffffffffff021916908373ffffffffffffffffffffffffffffffffffffffff160217905550600360008060009054906101000a900473ffffffffffffffffffffffffffffffffffffffff1673ffffffffffffffffffffffffffffffffffffffff1673ffffffffffffffffffffffffffffffffffffffff16815260200190815260200160002060009054906101000a900460ff16156103d157600080fd5b6040518061010001604052806000809054906101000a900473ffffffffffffffffffffffffffffffffffffffff1673ffffffffffffffffffffffffffffffffffffffff168152602001878152602001868152602001858152602001848152602001838152602001828152602001600060405190808252806020026020018201604052801561047357816020015b606081526020019060019003908161045e5790505b50815250600260008060009054906101000a900473ffffffffffffffffffffffffffffffffffffffff1673ffffffffffffffffffffffffffffffffffffffff1673ffffffffffffffffffffffffffffffffffffffff16815260200190815260200160002060008201518160000160006101000a81548173ffffffffffffffffffffffffffffffffffffffff021916908373ffffffffffffffffffffffffffffffffffffffff160217905550602082015181600101908051906020019061053a929190610f06565b5060408201518160020155606082015181600301556080820151816004015560a0820151816005019080519060200190610575929190610f06565b5060c0820151816006019080519060200190610592929190610f06565b5060e08201518160070190805190602001906105af929190610f86565b509050506001600360008060009054906101000a900473ffffffffffffffffffffffffffffffffffffffff1673ffffffffffffffffffffffffffffffffffffffff1673ffffffffffffffffffffffffffffffffffffffff16815260200190815260200160002060006101000a81548160ff021916908315150217905550505050505050565b60008090505b600160003373ffffffffffffffffffffffffffffffffffffffff1673ffffffffffffffffffffffffffffffffffffffff168152602001908152602001600020600701805490508110156107ba578173ffffffffffffffffffffffffffffffffffffffff16600160003373ffffffffffffffffffffffffffffffffffffffff1673ffffffffffffffffffffffffffffffffffffffff16815260200190815260200160002060070182815481106106eb57fe5b9060005260206000200160009054906101000a900473ffffffffffffffffffffffffffffffffffffffff1673ffffffffffffffffffffffffffffffffffffffff1614156107ad57600160003373ffffffffffffffffffffffffffffffffffffffff1673ffffffffffffffffffffffffffffffffffffffff168152602001908152602001600020600701818154811061077f57fe5b9060005260206000200160006101000a81549073ffffffffffffffffffffffffffffffffffffffff02191690555b808060010191505061063a565b5050565b60026020528060005260406000206000915090508060000160009054906101000a900473ffffffffffffffffffffffffffffffffffffffff1690806001018054600181600116156101000203166002900480601f0160208091040260200160405190810160405280929190818152602001828054600181600116156101000203166002900480156108905780601f1061086557610100808354040283529160200191610890565b820191906000526020600020905b81548152906001019060200180831161087357829003601f168201915b505050505090806002015490806003015490806004015490806005018054600181600116156101000203166002900480601f0160208091040260200160405190810160405280929190818152602001828054600181600116156101000203166002900480156109405780601f1061091557610100808354040283529160200191610940565b820191906000526020600020905b81548152906001019060200180831161092357829003601f168201915b505050505090806006018054600181600116156101000203166002900480601f0160208091040260200160405190810160405280929190818152602001828054600181600116156101000203166002900480156109de5780601f106109b3576101008083540402835291602001916109de565b820191906000526020600020905b8154815290600101906020018083116109c157829003601f168201915b5050505050905087565b6060600160008373ffffffffffffffffffffffffffffffffffffffff1673ffffffffffffffffffffffffffffffffffffffff168152602001908152602001600020600601805480602002602001604051908101604052809291908181526020016000905b82821015610b08578382906000526020600020018054600181600116156101000203166002900480601f016020809104026020016040519081016040528092919081815260200182805460018160011615610100020316600290048015610af45780601f10610ac957610100808354040283529160200191610af4565b820191906000526020600020905b815481529060010190602001808311610ad757829003601f168201915b505050505081526020019060010190610a4c565b505050509050919050565b600160003373ffffffffffffffffffffffffffffffffffffffff1673ffffffffffffffffffffffffffffffffffffffff1681526020019081526020016000206007018190806001815401808255809150509060018203906000526020600020016000909192909190916101000a81548173ffffffffffffffffffffffffffffffffffffffff021916908373ffffffffffffffffffffffffffffffffffffffff1602179055505050565b336000806101000a81548173ffffffffffffffffffffffffffffffffffffffff021916908373ffffffffffffffffffffffffffffffffffffffff160217905550600360008060009054906101000a900473ffffffffffffffffffffffffffffffffffffffff1673ffffffffffffffffffffffffffffffffffffffff1673ffffffffffffffffffffffffffffffffffffffff16815260200190815260200160002060009054906101000a900460ff1615610c7457600080fd5b6040518061010001604052806000809054906101000a900473ffffffffffffffffffffffffffffffffffffffff1673ffffffffffffffffffffffffffffffffffffffff1681526020018681526020018581526020018481526020018381526020018281526020016000604051908082528060200260200182016040528015610d1057816020015b6060815260200190600190039081610cfb5790505b5081526020016000604051908082528060200260200182016040528015610d465781602001602082028038833980820191505090505b50815250600160008060009054906101000a900473ffffffffffffffffffffffffffffffffffffffff1673ffffffffffffffffffffffffffffffffffffffff1673ffffffffffffffffffffffffffffffffffffffff16815260200190815260200160002060008201518160000160006101000a81548173ffffffffffffffffffffffffffffffffffffffff021916908373ffffffffffffffffffffffffffffffffffffffff1602179055506020820151816001019080519060200190610e0d929190610f06565b5060408201518160020155606082015181600301556080820151816004015560a0820151816005019080519060200190610e48929190610f06565b5060c0820151816006019080519060200190610e65929190610f86565b5060e0820151816007019080519060200190610e82929190610fe6565b509050506001600360008060009054906101000a900473ffffffffffffffffffffffffffffffffffffffff1673ffffffffffffffffffffffffffffffffffffffff1673ffffffffffffffffffffffffffffffffffffffff16815260200190815260200160002060006101000a81548160ff0219169083151502179055505050505050565b828054600181600116156101000203166002900490600052602060002090601f016020900481019282601f10610f4757805160ff1916838001178555610f75565b82800160010185558215610f75579182015b82811115610f74578251825591602001919060010190610f59565b5b509050610f829190611070565b5090565b828054828255906000526020600020908101928215610fd5579160200282015b82811115610fd4578251829080519060200190610fc4929190610f06565b5091602001919060010190610fa6565b5b509050610fe29190611095565b5090565b82805482825590600052602060002090810192821561105f579160200282015b8281111561105e5782518260006101000a81548173ffffffffffffffffffffffffffffffffffffffff021916908373ffffffffffffffffffffffffffffffffffffffff16021790555091602001919060010190611006565b5b50905061106c91906110c1565b5090565b61109291905b8082111561108e576000816000905550600101611076565b5090565b90565b6110be91905b808211156110ba57600081816110b19190611104565b5060010161109b565b5090565b90565b61110191905b808211156110fd57600081816101000a81549073ffffffffffffffffffffffffffffffffffffffff0219169055506001016110c7565b5090565b90565b50805460018160011615610100020316600290046000825580601f1061112a5750611149565b601f0160209004906000526020600020908101906111489190611070565b5b50565b60008135905061115b816116e7565b92915050565b600082601f83011261117257600080fd5b8135611185611180826115c6565b611599565b915080825260208301602083018583830111156111a157600080fd5b6111ac838284611694565b50505092915050565b6000813590506111c4816116fe565b92915050565b6000602082840312156111dc57600080fd5b60006111ea8482850161114c565b91505092915050565b600080600080600060a0868803121561120b57600080fd5b600086013567ffffffffffffffff81111561122557600080fd5b61123188828901611161565b9550506020611242888289016111b5565b9450506040611253888289016111b5565b9350506060611264888289016111b5565b925050608086013567ffffffffffffffff81111561128157600080fd5b61128d88828901611161565b9150509295509295909350565b60008060008060008060c087890312156112b357600080fd5b600087013567ffffffffffffffff8111156112cd57600080fd5b6112d989828a01611161565b96505060206112ea89828a016111b5565b95505060406112fb89828a016111b5565b945050606061130c89828a016111b5565b935050608087013567ffffffffffffffff81111561132957600080fd5b61133589828a01611161565b92505060a087013567ffffffffffffffff81111561135257600080fd5b61135e89828a01611161565b9150509295509295509295565b60006113778383611403565b905092915050565b61138881611658565b82525050565b600061139982611602565b6113a38185611625565b9350836020820285016113b5856115f2565b8060005b858110156113f157848403895281516113d2858261136b565b94506113dd83611618565b925060208a019950506001810190506113b9565b50829750879550505050505092915050565b600061140e8261160d565b6114188185611636565b93506114288185602086016116a3565b611431816116d6565b840191505092915050565b60006114478261160d565b6114518185611647565b93506114618185602086016116a3565b61146a816116d6565b840191505092915050565b61147e8161168a565b82525050565b600060c082019050611499600083018961137f565b81810360208301526114ab818861143c565b90506114ba6040830187611475565b6114c76060830186611475565b6114d46080830185611475565b81810360a08301526114e6818461143c565b9050979650505050505050565b600060e082019050611508600083018a61137f565b818103602083015261151a818961143c565b90506115296040830188611475565b6115366060830187611475565b6115436080830186611475565b81810360a0830152611555818561143c565b905081810360c0830152611569818461143c565b905098975050505050505050565b60006020820190508181036000830152611591818461138e565b905092915050565b6000604051905081810181811067ffffffffffffffff821117156115bc57600080fd5b8060405250919050565b600067ffffffffffffffff8211156115dd57600080fd5b601f19601f8301169050602081019050919050565b6000819050602082019050919050565b600081519050919050565b600081519050919050565b6000602082019050919050565b600082825260208201905092915050565b600082825260208201905092915050565b600082825260208201905092915050565b60006116638261166a565b9050919050565b600073ffffffffffffffffffffffffffffffffffffffff82169050919050565b6000819050919050565b82818337600083830152505050565b60005b838110156116c15780820151818401526020810190506116a6565b838111156116d0576000848401525b50505050565b6000601f19601f8301169050919050565b6116f081611658565b81146116fb57600080fd5b50565b6117078161168a565b811461171257600080fd5b5056fea365627a7a72315820a6f30b1f998c9ca77d3d89746ece974449af0ec6eeb9d026d1fda59a5148814b6c6578706572696d656e74616cf564736f6c63430005100040",
  "source": "pragma solidity ^0.5.2;\npragma experimental ABIEncoderV2;\n\ncontract EHR {\n\n\taddress owner;\n\t//uint public patientCount;\n\tmapping(address => Patient) public patients;\n\t//uint public doctorCount;\n\tmapping(address=> Doctor) public doctors;\n\tmapping(address => bool) profileExists;\n\n\t// Model a patient\n\tstruct Patient {\n\n\t\t// Identifiers\n\t\taddress id;\n\t\tstring name;\n\t\tuint birthyear;\n\t\tuint month;\n\t\tuint day;\n\t\tstring city;\n\n\t\t// Health record\n\t\tstring[] records;\n\t\t// Doctor list\n\t\taddress[] doctorAccess;\n\n\t}\n\t// Register patient\n\tfunction registerPatient(string memory _name, uint _birthyear, uint _month, uint _day, string memory _city) public {\n\t\towner = msg.sender;\n\t\trequire(!profileExists[owner]);\n\t\t//patientCount++;\n\t\tpatients[owner] = Patient(owner, _name, _birthyear, _month, _day, _city, new string[](0), new address[](0));\n\t\tprofileExists[owner] = true;\n\n\t}\n\t// Give doctor access to records.\n\t// Need to solve require.\n\tfunction giveAccess(address _doctor) public {\n\t\tpatients[msg.sender].doctorAccess.push(_doctor);\n\t}\n\t// Revoke doctor access to records.\n\t// Need to solve require.\n\tfunction revokeAccess(address _doctor) public {\n\t\tfor (uint i = 0; i<patients[msg.sender].doctorAccess.length; i++) {\n\t\t\tif (patients[msg.sender].doctorAccess[i] == _doctor) {\n\t\t\t\tdelete patients[msg.sender].doctorAccess[i];\n\t\t\t}\n\t\t}\n    }\n\n    function viewRecord(address _patient) public view returns (string[] memory){\n    \treturn patients[_patient].records;\n    }\n\n\tstruct Doctor {\n\n\t// Identifiers\n\taddress id;\n\tstring name;\n\tuint birthyear;\n\tuint month;\n\tuint day;\n\tstring city;\n\tstring speciality;\n\n\t// Patient List\n\tstring[] patientAccess;\n\t\n\n\t}\n\t// Register doctor\n\tfunction registerDoctor(string memory _name, uint _birthyear, uint _month, uint _day, string memory _city, string memory _speciality) public {\n\t\towner = msg.sender;\n\t\trequire(!profileExists[owner]);\n\t\t//doctorCount++;\n\t\tdoctors[owner] = Doctor(owner, _name, _birthyear, _month, _day, _city, _speciality, new string[](0));\n\t\tprofileExists[owner] = true;\n\t}\n\t\n}\n\n",
  "sourcePath": "/home/oscar/Desktop/EHR-System/contracts/EHR.sol",
  "compiler": {
    "name": "solc",
    "version": "0.5.16+commit.9c3226ce.Emscripten.clang"
  },
  "schemaVersion": "3.3.4",
  "updatedAt": "2021-03-20T20:06:07.344Z",
  "networkType": "ethereum",
  "devdoc": {
    "methods": {}
  },
  "userdoc": {
    "methods": {}
  }
}